:10028600120377E4F509C3E5099408748094805055
:1002960014E5099003F293FF9003EAE493FD120438
:1002A6003E050980E17DFF7FFF1201037F887E13F3
:1002B600120402E4FDFF120103E4F509C3E5099403
:1002C60008748094805010E5099003F293FFE4FDD2
:1002D60012043E050980E59003F8E493FF9003E2DB
:1002E600E493FD12043E9003F9E493FF9003E2E4E5
:0502F60093FD02043E2F
:1001CD00E4F5081202861200038F087E00C3EF9437
:1001DD00017480948040EFD3EF94407480948050EC
:1001ED00E59003F8E493FFE50875F00A849003E2C7
:1001FD0093FD12043E9003F9E493FFE50875F00AB0
:10020D0084E5F09003E293FD12043EE5086401706D
:10021D00067D807F608052E508640270067D407F18
:10022D00DA8046E508640370067D207FF2803AE5AA
:10023D0008640970067D107F66802EE508640A70DB
:10024D00067D087FB68022E508640B70067D047F6D
:10025D00BE8016E508641170067D027FE0800AE518
:10026D0008641270077D017FFE120103120003EF77
:09027D00650860030201D380F35F
:1003E2003F065B4F666D7D077F6F777C395E797163
:1003F200CECCCAC8C6C4C2C0CFCDCBC9C7C5C3C183
:10039F00E4FEEEC39408748094805015C291EF3040
:1003AF00E004D2908002C290EFC313FFD2910E806F
:0103BF00E15C
:0103C000221A
:08046000C29212039FD2922206
:10043E00AC077F44120460C292AF0412039FAF0553
:06044E0012039FD292226E
:1003C100E4FFD290FEEEC39408748094805011EF44
:1003D100C313FFC291D2913090034307800E80E591
:0103E10022F9
:10000300E4FDC2927F4212039FE4FCECC3940474A8
:10001300809480500C1203C174092CF8A6070C803D
:10002300EAD292E509603924FE601C24FE601D2497
:10003300F4601E24F0601F24E06020243F6003026C
:1000430001007D110201007D090201007D01020111
:10005300007D120201007D0A0201007D02020100FF
:10006300E50A603324FE601B24FE601B24F4601B3E
:1000730024F0601B24E0601B243F60030201007D29
:1000830013807A7D0B80767D0380727D14806E7D74
:100093000C806A7D048066E50B603024FE601824C2
:1000A300FE601824F4601824F0601824E06018241B
:1000B3003F704A7D1580467D0D80427D05803E7DE3
:1000C30016803A7D0E80367D068032E50C602E2444
:1000D300FE601824FE601824F4601824F0601824CD
:1000E300E06018243F70167D1780127D0F800E7D0F
:0F00F30007800A7D1880067D1080027D08AF050A
:0101020022DA
:0202FB00AB074F
:1002FD00E4FAEAC3940874809480502F7E00740150
:10030D00A802088005C333CE33CED8F9FFEBFDEF3D
:10031D005D600AEA9003FA93FF7D018008EA90037D
:0B032D00FA93FFE4FD12043E0A80C7B3
:0103380022A2
:02033900AB0710
:10033B00E4FAEAC3940874809480502F7E00740111
:10034B00A802088005C333CE33CED8F9FFEBFDEFFF
:10035B005D600AEA9003FA93FF7D028008EA90033E
:0B036B00FA93FFE4FD12043E0A80C775
:010376002264
:10010300AB05AA07900401E493FFEA5480C41313D8
:10011300135401FEEB5480C4131354034EFD120415
:100123003E900400E493FFEA5440C413135403FEC7
:10013300EB5440C41354074EFD12043E9003FFE4F6
:1001430093FFEA5420C4135407FEEB5420C4540F06
:100153004EFD12043E9003FEE493FFEA5410C45490
:100163000FFEEB5410131313541F4EFD12043E9055
:1001730003FDE493FFEA5408131313541FFEEB54D7
:10018300081313543F4EFD12043E9003FCE493FF07
:10019300EA54041313543FFEEB5404C3134EFD12ED
:1001A300043E9003FBE493FFEA5402C313FEEB54B3
:1001B300024EFD12043E9003FAE493FFEB54012533
:0A01C300E0FEEA54014EFD02043E86
:100377007F891204607F40120460C2927FC012031B
:100387009FE4FDEDC39410748094805008E4FF123D
:07039700039F0D80EED292DE
:01039E00223C
:10040200D3EF9400EE940040147D207C03ED1D7028
:0D041200011CED4C70F7EF1F70E61E80E33B
:01041F0022BA
:10042000D3EF9400EE940040147D067C00ED1D7027
:0D043000011CED4C70F7EF1F70E61E80E31D
:01043D00229C
:03000000020454A3
:0C045400787FE4F6D8FD75810C0201CD24
:00000001FF
